:020000020000FC
:1000000058E05EBF5FE55DBF5FEF5ABB57BBC2986C
:100010000E94450008E30E9426000E9445000EE071
:100020000E9426000E94450001E00E9426000E94D6
:10003000450006E00E942600FAE0E0E0059100306D
:1000400019F00E943000FACF0C9424000BBBC0982A
:10005000C198C29A0E943A00C2980E943D00089539
:100060000BBBC09AC198C29A0E943A00C2980E94E3
:100070003D0008950000000008951F931CE30E94B6
:100080003A001A95E1F71F9108951F9314E10E9419
:0A0090003A001A95E1F71F91089558
:080A0000416E6972756400008B
:00000001FF
