:020000020000FC
:1000000008E00EBF0FE50DBF0FEF07BBF2E0E0E029
:10001000459148BB0E940F004038C1F3F9CF1FEF54
:060020001A95F1F70895A6
:100200007F878F979FA6AEB5BCC3CAD0D6DCE1E688
:10021000EAEEF2F5F8FAFCFDFEFEFEFDFCFAF8F55A
:10022000F2EEEAE6E1DCD6D0CAC3BCB5AEA69F9733
:100230008F877F776F675F585049423B342E282263
:100240001D1814100C09060402010000000102042C
:1002500006090C1014181D22282E343B4249505810
:060260005F676F7780006C
:00000001FF
