:020000020000FC
:1000000058E05EBF5FE55DBF5FEF5ABB57BBC2986C
:100010000E94600008E30E9441000E9460000EE020
:100020000E9441000E94600001E00E9441000E9485
:10003000600006E00E94410002E50E944B0004E5DA
:100040000E944B0005E40E944B0003E50E944B0018
:1000500000E20E944B000CE40E944B0001E40E946D
:100060004B0002E40E944B0000EC0E9441000E9401
:10007000600005E40E944B0005E40E944B000C94D4
:100080003F000BBBC098C198C29A0E945500C2980D
:100090000E94580008950BBBC09AC198C29A0E9452
:1000A0005500C2980E94580008950000000008956D
:1000B0001F931CE30E9455001A95E1F71F910895C4
:1000C0001F9314E10E9455001A95E1F71F910895BE
:00000001FF
