:020000020000FC
:1000000048E04EBF4FE54DBF40EF41BB6FEF70E0A2
:10001000DF9A5FEF57BB5ABBDA980E947E0008E375
:100020000E945F000E947E000EE00E945F0001E0DF
:100030000E945F000E947E004FE042BB000050B370
:100040005F705F30D9F7000050B35F705F30D9F355
:100050000E94860050B35F705F30A9F35FE752BB28
:10006000000050B35F705F30A9F45FEB52BB00003B
:1000700050B35F705F3089F45FED52BB000050B346
:100080005F705F3069F45FEE52BB000050B35F7089
:100090005F3049F4ECE0F6E009C0E8E0F6E006C0C5
:1000A000E4E0F6E003C0E0E0F6E000C0569510F4AE
:1000B0004591FCCF4491042F0E946900BDCF08BB3D
:1000C000D898D998DA9A0E947300DA980E9476003C
:1000D000089508BBD89AD998DA9A0E947300DA98E2
:1000E0000E94760008950000000008951F931CE30D
:1000F0000E9473001A95E1F71F9108951F9314E170
:100100000E9476001A95E1F71F9108951F9316E952
:0C0110000E9476001A95E1F71F910895F7
:100600003031323334353637383941424344454648
:00000001FF
