:020000020000FC
:1000000048E04EBF4FE54DBF5FEF51BB40EF44BBF3
:100010005FEF5ABB57BBC2980E942E0308E30E94B1
:100020000F030E942E030EE00E940F0301E00E94C6
:100030000F030E942E034FE045BB000053B35F70D7
:100040005F30D9F7000053B35F705F30D9F30E947F
:100050005E0053B35F705F30A9F35FE755BB0000EC
:1000600053B35F705F30A9F45FEB55BB000053B32F
:100070005F705F3089F45FED55BB000053B35F7074
:100080005F3069F45FEE55BB000053B35F705F30C3
:1000900049F4E0E0F6E009C0E4E0F6E006C0E8E09C
:1000A000F6E003C0ECE0F6E000C0569510F4459190
:1000B000FCCF449142BB0E940803BDCF02E01FEF7A
:1000C0002FEF2A95F1F71A95D9F70A95B9F7089500
:100600003031323334353637383941424344454648
:1006100006E00E940F0308E40E94190308950BBB33
:10062000C098C198C29A0E942303C2980E942603D0
:1006300008950BBBC09AC198C29A0E942303C29826
:100640000E94260308950000000008951F931CE3F4
:100650000E9423031A95E1F71F9108951F9314E157
:0C0660000E9426031A95E1F71F910895EF
:00000001FF
