:020000020000FC
:1000000048E04EBF4FE54DBF40EF47BB5FEF54BBED
:1000100051BB92980E947B0008E30E945C000E9402
:100020007B000EE00E945C0001E00E945C000E94E8
:100030007B004FE048BB000056B35F705F30D9F7DC
:10004000000056B35F705F30D9F30E94830056B34F
:100050005F705F30A9F35FE758BB000056B35F7075
:100060005F30A9F45FEB58BB000056B35F705F30A0
:1000700089F45FED58BB000056B35F705F3069F4E0
:100080005FEE58BB000056B35F705F3049F4ECE0A0
:10009000F6E009C0E8E0F6E006C0E4E0F6E003C000
:1000A000E0E0F6E000C0569510F44591FCCF449195
:1000B000042F0E946600BDCF05BB90989198929A3C
:1000C0000E94700092980E947300089505BB909A58
:1000D0009198929A0E94700092980E9473000895DD
:1000E0000000000008951F931CE30E9470001A9501
:1000F000E1F71F9108951F9314E10E9473001A9570
:10010000E1F71F9108951F9316E90E9473001A9555
:06011000E1F71F910895C4
:100600003031323334353637383941424344454648
:00000001FF
