:020000020000FC
:1000000058E05EBF5FE55DBF5FEF5ABB57BBC2986C
:100010000E94500008E30E9431000E9450000EE050
:100020000E94310001E00E9431000E94500006E071
:100030000E943100FAE0E0E00591003019F00E94E2
:100040003B00FACF00EC0E9431000E945000F8E023
:10005000E0E00591003019F00E943B00FACF0C94CB
:100060002F000BBBC098C198C29A0E944500C2984D
:100070000E94480008950BBBC09AC198C29A0E9482
:100080004500C2980E9448000895000000000895AD
:100090001F931CE30E9445001A95E1F71F910895F4
:1000A0001F9314E10E9448001A95E1F71F910895EB
:060A000052544553200092
:0E080000456D626564646564204C61620000B1
:00000001FF
